{
  "_format": "hh-sol-artifact-1",
  "contractName": "Muse",
  "sourceName": "contracts/Muse.sol",
  "abi": [
    {
      "anonymous": false,
      "inputs": [
        {
          "indexed": true,
          "internalType": "address",
          "name": "owner",
          "type": "address"
        },
        {
          "indexed": true,
          "internalType": "address",
          "name": "spender",
          "type": "address"
        },
        {
          "indexed": false,
          "internalType": "uint256",
          "name": "value",
          "type": "uint256"
        }
      ],
      "name": "Approval",
      "type": "event"
    },
    {
      "anonymous": false,
      "inputs": [
        {
          "indexed": true,
          "internalType": "address",
          "name": "from",
          "type": "address"
        },
        {
          "indexed": true,
          "internalType": "address",
          "name": "to",
          "type": "address"
        },
        {
          "indexed": false,
          "internalType": "uint256",
          "name": "value",
          "type": "uint256"
        }
      ],
      "name": "Transfer",
      "type": "event"
    },
    {
      "inputs": [
        {
          "internalType": "bytes32",
          "name": "_hashedMessage",
          "type": "bytes32"
        },
        {
          "internalType": "uint8",
          "name": "_v",
          "type": "uint8"
        },
        {
          "internalType": "bytes32",
          "name": "_r",
          "type": "bytes32"
        },
        {
          "internalType": "bytes32",
          "name": "_s",
          "type": "bytes32"
        }
      ],
      "name": "VerifyMessage",
      "outputs": [
        {
          "internalType": "address",
          "name": "",
          "type": "address"
        }
      ],
      "stateMutability": "pure",
      "type": "function"
    },
    {
      "inputs": [
        {
          "internalType": "address",
          "name": "owner",
          "type": "address"
        },
        {
          "internalType": "address",
          "name": "spender",
          "type": "address"
        }
      ],
      "name": "allowance",
      "outputs": [
        {
          "internalType": "uint256",
          "name": "",
          "type": "uint256"
        }
      ],
      "stateMutability": "view",
      "type": "function"
    },
    {
      "inputs": [
        {
          "internalType": "address",
          "name": "spender",
          "type": "address"
        },
        {
          "internalType": "uint256",
          "name": "amount",
          "type": "uint256"
        }
      ],
      "name": "approve",
      "outputs": [
        {
          "internalType": "bool",
          "name": "",
          "type": "bool"
        }
      ],
      "stateMutability": "nonpayable",
      "type": "function"
    },
    {
      "inputs": [
        {
          "internalType": "address",
          "name": "account",
          "type": "address"
        }
      ],
      "name": "balanceOf",
      "outputs": [
        {
          "internalType": "uint256",
          "name": "",
          "type": "uint256"
        }
      ],
      "stateMutability": "view",
      "type": "function"
    },
    {
      "inputs": [
        {
          "internalType": "address",
          "name": "user",
          "type": "address"
        },
        {
          "internalType": "uint256",
          "name": "amount",
          "type": "uint256"
        },
        {
          "internalType": "uint256",
          "name": "nonce",
          "type": "uint256"
        },
        {
          "internalType": "uint8",
          "name": "v",
          "type": "uint8"
        },
        {
          "internalType": "bytes32",
          "name": "r",
          "type": "bytes32"
        },
        {
          "internalType": "bytes32",
          "name": "s",
          "type": "bytes32"
        }
      ],
      "name": "checkSig",
      "outputs": [
        {
          "internalType": "address",
          "name": "",
          "type": "address"
        }
      ],
      "stateMutability": "pure",
      "type": "function"
    },
    {
      "inputs": [
        {
          "internalType": "address",
          "name": "user",
          "type": "address"
        },
        {
          "internalType": "uint256",
          "name": "amount",
          "type": "uint256"
        },
        {
          "internalType": "uint256",
          "name": "nonce",
          "type": "uint256"
        },
        {
          "internalType": "uint8",
          "name": "v",
          "type": "uint8"
        },
        {
          "internalType": "bytes32",
          "name": "r",
          "type": "bytes32"
        },
        {
          "internalType": "bytes32",
          "name": "s",
          "type": "bytes32"
        }
      ],
      "name": "claimTokens",
      "outputs": [],
      "stateMutability": "nonpayable",
      "type": "function"
    },
    {
      "inputs": [],
      "name": "decimals",
      "outputs": [
        {
          "internalType": "uint8",
          "name": "",
          "type": "uint8"
        }
      ],
      "stateMutability": "view",
      "type": "function"
    },
    {
      "inputs": [
        {
          "internalType": "address",
          "name": "spender",
          "type": "address"
        },
        {
          "internalType": "uint256",
          "name": "subtractedValue",
          "type": "uint256"
        }
      ],
      "name": "decreaseAllowance",
      "outputs": [
        {
          "internalType": "bool",
          "name": "",
          "type": "bool"
        }
      ],
      "stateMutability": "nonpayable",
      "type": "function"
    },
    {
      "inputs": [
        {
          "internalType": "address",
          "name": "spender",
          "type": "address"
        },
        {
          "internalType": "uint256",
          "name": "addedValue",
          "type": "uint256"
        }
      ],
      "name": "increaseAllowance",
      "outputs": [
        {
          "internalType": "bool",
          "name": "",
          "type": "bool"
        }
      ],
      "stateMutability": "nonpayable",
      "type": "function"
    },
    {
      "inputs": [],
      "name": "name",
      "outputs": [
        {
          "internalType": "string",
          "name": "",
          "type": "string"
        }
      ],
      "stateMutability": "view",
      "type": "function"
    },
    {
      "inputs": [],
      "name": "symbol",
      "outputs": [
        {
          "internalType": "string",
          "name": "",
          "type": "string"
        }
      ],
      "stateMutability": "view",
      "type": "function"
    },
    {
      "inputs": [],
      "name": "totalSupply",
      "outputs": [
        {
          "internalType": "uint256",
          "name": "",
          "type": "uint256"
        }
      ],
      "stateMutability": "view",
      "type": "function"
    },
    {
      "inputs": [
        {
          "internalType": "address",
          "name": "to",
          "type": "address"
        },
        {
          "internalType": "uint256",
          "name": "amount",
          "type": "uint256"
        }
      ],
      "name": "transfer",
      "outputs": [
        {
          "internalType": "bool",
          "name": "",
          "type": "bool"
        }
      ],
      "stateMutability": "nonpayable",
      "type": "function"
    },
    {
      "inputs": [
        {
          "internalType": "address",
          "name": "from",
          "type": "address"
        },
        {
          "internalType": "address",
          "name": "to",
          "type": "address"
        },
        {
          "internalType": "uint256",
          "name": "amount",
          "type": "uint256"
        }
      ],
      "name": "transferFrom",
      "outputs": [
        {
          "internalType": "bool",
          "name": "",
          "type": "bool"
        }
      ],
      "stateMutability": "nonpayable",
      "type": "function"
    }
  ],
  "bytecode": "0x6080604052600680546001600160a01b0319167324f597d211e487814faa990dcd4699db678fb01117905534801562000036575f80fd5b506040805180820182526004808252634d55534560e01b60208084018290528451808601909552918452908301529060036200007383826200012b565b5060046200008282826200012b565b505050620001f3565b634e487b7160e01b5f52604160045260245ffd5b600181811c90821680620000b457607f821691505b602082108103620000d357634e487b7160e01b5f52602260045260245ffd5b50919050565b601f82111562000126575f81815260208120601f850160051c81016020861015620001015750805b601f850160051c820191505b8181101562000122578281556001016200010d565b5050505b505050565b81516001600160401b038111156200014757620001476200008b565b6200015f816200015884546200009f565b84620000d9565b602080601f83116001811462000195575f84156200017d5750858301515b5f19600386901b1c1916600185901b17855562000122565b5f85815260208120601f198616915b82811015620001c557888601518255948401946001909101908401620001a4565b5085821015620001e357878501515f19600388901b60f8161c191681555b5050505050600190811b01905550565b610cb580620002015f395ff3fe608060405234801561000f575f80fd5b50600436106100e5575f3560e01c8063659934c111610088578063a457c2d711610063578063a457c2d7146101e1578063a9059cbb146101f4578063dd62ed3e14610207578063f6cb87f91461021a575f80fd5b8063659934c11461018657806370a08231146101b157806395d89b41146101d9575f80fd5b806323b872dd116100c357806323b872dd1461013c578063313ce5671461014f5780633876fee11461015e5780633950935114610173575f80fd5b806306fdde03146100e9578063095ea7b31461010757806318160ddd1461012a575b5f80fd5b6100f161022d565b6040516100fe9190610a2e565b60405180910390f35b61011a610115366004610a7b565b6102bd565b60405190151581526020016100fe565b6002545b6040519081526020016100fe565b61011a61014a366004610aa3565b6102d6565b604051601281526020016100fe565b61017161016c366004610aec565b6102f9565b005b61011a610181366004610a7b565b610401565b610199610194366004610b40565b610422565b6040516001600160a01b0390911681526020016100fe565b61012e6101bf366004610b78565b6001600160a01b03165f9081526020819052604090205490565b6100f16104ef565b61011a6101ef366004610a7b565b6104fe565b61011a610202366004610a7b565b610578565b61012e610215366004610b98565b610585565b610199610228366004610aec565b6105af565b60606003805461023c90610bc9565b80601f016020809104026020016040519081016040528092919081815260200182805461026890610bc9565b80156102b35780601f1061028a576101008083540402835291602001916102b3565b820191905f5260205f20905b81548152906001019060200180831161029657829003601f168201915b5050505050905090565b5f336102ca818585610612565b60019150505b92915050565b5f336102e3858285610735565b6102ee8585856107ad565b506001949350505050565b5f8481526005602052604090205460ff16156103555760405162461bcd60e51b815260206004820152601660248201527514da59db985d1d5c9948185b1c9958591e481d5cd95960521b60448201526064015b60405180910390fd5b5f848152600560205260408120805460ff1916600117905561037b8787878787876105af565b6006549091506001600160a01b038083169116146103cf5760405162461bcd60e51b8152602060048201526011602482015270496e76616c6964205369676e617475726560781b604482015260640161034c565b6103f8876236ee806103e989670de0b6b3a7640000610c15565b6103f39190610c2c565b61094f565b50505050505050565b5f336102ca8185856104138383610585565b61041d9190610c4b565b610612565b5f806040518060400160405280601c81526020017f19457468657265756d205369676e6564204d6573736167653a0a33320000000081525090505f8187604051602001610470929190610c5e565b60408051601f1981840301815282825280516020918201205f80855291840180845281905260ff8a169284019290925260608301889052608083018790529092509060019060a0016020604051602081039080840390855afa1580156104d8573d5f803e3d5ffd5b5050604051601f1901519998505050505050505050565b60606004805461023c90610bc9565b5f338161050b8286610585565b90508381101561056b5760405162461bcd60e51b815260206004820152602560248201527f45524332303a2064656372656173656420616c6c6f77616e63652062656c6f77604482015264207a65726f60d81b606482015260840161034c565b6102ee8286868403610612565b5f336102ca8185856107ad565b6001600160a01b039182165f90815260016020908152604080832093909416825291909152205490565b6040516bffffffffffffffffffffffff19606088901b16602082015260348101869052605481018590525f9081906074016040516020818303038152906040528051906020012090505f61060582878787610422565b9998505050505050505050565b6001600160a01b0383166106745760405162461bcd60e51b8152602060048201526024808201527f45524332303a20617070726f76652066726f6d20746865207a65726f206164646044820152637265737360e01b606482015260840161034c565b6001600160a01b0382166106d55760405162461bcd60e51b815260206004820152602260248201527f45524332303a20617070726f766520746f20746865207a65726f206164647265604482015261737360f01b606482015260840161034c565b6001600160a01b038381165f8181526001602090815260408083209487168084529482529182902085905590518481527f8c5be1e5ebec7d5bd14f71427d1e84f3dd0314c0f7b2291e5b200ac8c7c3b925910160405180910390a3505050565b5f6107408484610585565b90505f1981146107a7578181101561079a5760405162461bcd60e51b815260206004820152601d60248201527f45524332303a20696e73756666696369656e7420616c6c6f77616e6365000000604482015260640161034c565b6107a78484848403610612565b50505050565b6001600160a01b0383166108115760405162461bcd60e51b815260206004820152602560248201527f45524332303a207472616e736665722066726f6d20746865207a65726f206164604482015264647265737360d81b606482015260840161034c565b6001600160a01b0382166108735760405162461bcd60e51b815260206004820152602360248201527f45524332303a207472616e7366657220746f20746865207a65726f206164647260448201526265737360e81b606482015260840161034c565b6001600160a01b0383165f90815260208190526040902054818110156108ea5760405162461bcd60e51b815260206004820152602660248201527f45524332303a207472616e7366657220616d6f756e7420657863656564732062604482015265616c616e636560d01b606482015260840161034c565b6001600160a01b038481165f81815260208181526040808320878703905593871680835291849020805487019055925185815290927fddf252ad1be2c89b69c2b068fc378daa952ba7f163c4a11628f55a4df523b3ef910160405180910390a36107a7565b6001600160a01b0382166109a55760405162461bcd60e51b815260206004820152601f60248201527f45524332303a206d696e7420746f20746865207a65726f206164647265737300604482015260640161034c565b8060025f8282546109b69190610c4b565b90915550506001600160a01b0382165f81815260208181526040808320805486019055518481527fddf252ad1be2c89b69c2b068fc378daa952ba7f163c4a11628f55a4df523b3ef910160405180910390a35050565b5f5b83811015610a26578181015183820152602001610a0e565b50505f910152565b602081525f8251806020840152610a4c816040850160208701610a0c565b601f01601f19169190910160400192915050565b80356001600160a01b0381168114610a76575f80fd5b919050565b5f8060408385031215610a8c575f80fd5b610a9583610a60565b946020939093013593505050565b5f805f60608486031215610ab5575f80fd5b610abe84610a60565b9250610acc60208501610a60565b9150604084013590509250925092565b803560ff81168114610a76575f80fd5b5f805f805f8060c08789031215610b01575f80fd5b610b0a87610a60565b95506020870135945060408701359350610b2660608801610adc565b92506080870135915060a087013590509295509295509295565b5f805f8060808587031215610b53575f80fd5b84359350610b6360208601610adc565b93969395505050506040820135916060013590565b5f60208284031215610b88575f80fd5b610b9182610a60565b9392505050565b5f8060408385031215610ba9575f80fd5b610bb283610a60565b9150610bc060208401610a60565b90509250929050565b600181811c90821680610bdd57607f821691505b602082108103610bfb57634e487b7160e01b5f52602260045260245ffd5b50919050565b634e487b7160e01b5f52601160045260245ffd5b80820281158282048414176102d0576102d0610c01565b5f82610c4657634e487b7160e01b5f52601260045260245ffd5b500490565b808201808211156102d0576102d0610c01565b5f8351610c6f818460208801610a0c565b919091019182525060200191905056fea2646970667358221220a7c500358be94dfb31a6104aa2f79b007f22441e69a079b673b234773e5d442664736f6c63430008140033",
  "linkReferences": {},
  "deployedLinkReferences": {}
}