{
  "_format": "hh-sol-artifact-1",
  "contractName": "MusicalMasterpieces",
  "sourceName": "contracts/MusicalMasterpieces.sol",
  "abi": [
    {
      "inputs": [],
      "stateMutability": "nonpayable",
      "type": "constructor"
    },
    {
      "inputs": [
        {
          "internalType": "address",
          "name": "have",
          "type": "address"
        },
        {
          "internalType": "address",
          "name": "want",
          "type": "address"
        }
      ],
      "name": "OnlyCoordinatorCanFulfill",
      "type": "error"
    },
    {
      "anonymous": false,
      "inputs": [
        {
          "indexed": true,
          "internalType": "address",
          "name": "owner",
          "type": "address"
        },
        {
          "indexed": true,
          "internalType": "address",
          "name": "approved",
          "type": "address"
        },
        {
          "indexed": true,
          "internalType": "uint256",
          "name": "tokenId",
          "type": "uint256"
        }
      ],
      "name": "Approval",
      "type": "event"
    },
    {
      "anonymous": false,
      "inputs": [
        {
          "indexed": true,
          "internalType": "address",
          "name": "owner",
          "type": "address"
        },
        {
          "indexed": true,
          "internalType": "address",
          "name": "operator",
          "type": "address"
        },
        {
          "indexed": false,
          "internalType": "bool",
          "name": "approved",
          "type": "bool"
        }
      ],
      "name": "ApprovalForAll",
      "type": "event"
    },
    {
      "anonymous": false,
      "inputs": [
        {
          "indexed": true,
          "internalType": "address",
          "name": "from",
          "type": "address"
        },
        {
          "indexed": true,
          "internalType": "address",
          "name": "to",
          "type": "address"
        },
        {
          "indexed": true,
          "internalType": "uint256",
          "name": "tokenId",
          "type": "uint256"
        }
      ],
      "name": "Transfer",
      "type": "event"
    },
    {
      "inputs": [
        {
          "internalType": "address",
          "name": "to",
          "type": "address"
        },
        {
          "internalType": "uint256",
          "name": "tokenId",
          "type": "uint256"
        }
      ],
      "name": "approve",
      "outputs": [],
      "stateMutability": "nonpayable",
      "type": "function"
    },
    {
      "inputs": [
        {
          "internalType": "address",
          "name": "owner",
          "type": "address"
        }
      ],
      "name": "balanceOf",
      "outputs": [
        {
          "internalType": "uint256",
          "name": "",
          "type": "uint256"
        }
      ],
      "stateMutability": "view",
      "type": "function"
    },
    {
      "inputs": [
        {
          "internalType": "uint256",
          "name": "tokenID",
          "type": "uint256"
        },
        {
          "internalType": "uint256",
          "name": "tokenAmount",
          "type": "uint256"
        }
      ],
      "name": "enterMusicLotto",
      "outputs": [],
      "stateMutability": "nonpayable",
      "type": "function"
    },
    {
      "inputs": [],
      "name": "getAllLotteryURI",
      "outputs": [
        {
          "internalType": "string[]",
          "name": "uris",
          "type": "string[]"
        },
        {
          "internalType": "uint256[]",
          "name": "identifiers",
          "type": "uint256[]"
        }
      ],
      "stateMutability": "view",
      "type": "function"
    },
    {
      "inputs": [
        {
          "internalType": "uint256",
          "name": "tokenId",
          "type": "uint256"
        }
      ],
      "name": "getApproved",
      "outputs": [
        {
          "internalType": "address",
          "name": "",
          "type": "address"
        }
      ],
      "stateMutability": "view",
      "type": "function"
    },
    {
      "inputs": [
        {
          "internalType": "uint256[]",
          "name": "tokenIds",
          "type": "uint256[]"
        },
        {
          "internalType": "address",
          "name": "user",
          "type": "address"
        }
      ],
      "name": "getLottosByTokensIds",
      "outputs": [
        {
          "internalType": "uint256[]",
          "name": "currentTokensInLottos",
          "type": "uint256[]"
        },
        {
          "internalType": "uint256[]",
          "name": "tokenAmountTriggers",
          "type": "uint256[]"
        },
        {
          "internalType": "uint256[]",
          "name": "userTokensInLottos",
          "type": "uint256[]"
        },
        {
          "internalType": "address[]",
          "name": "musicMinters",
          "type": "address[]"
        }
      ],
      "stateMutability": "view",
      "type": "function"
    },
    {
      "inputs": [
        {
          "internalType": "uint256",
          "name": "tokenId",
          "type": "uint256"
        },
        {
          "internalType": "address",
          "name": "user",
          "type": "address"
        }
      ],
      "name": "getUserTotalTokensInLotto",
      "outputs": [
        {
          "internalType": "uint256",
          "name": "totalTokens",
          "type": "uint256"
        }
      ],
      "stateMutability": "view",
      "type": "function"
    },
    {
      "inputs": [
        {
          "internalType": "address",
          "name": "owner",
          "type": "address"
        },
        {
          "internalType": "address",
          "name": "operator",
          "type": "address"
        }
      ],
      "name": "isApprovedForAll",
      "outputs": [
        {
          "internalType": "bool",
          "name": "",
          "type": "bool"
        }
      ],
      "stateMutability": "view",
      "type": "function"
    },
    {
      "inputs": [
        {
          "internalType": "uint256",
          "name": "",
          "type": "uint256"
        }
      ],
      "name": "lotteries",
      "outputs": [
        {
          "internalType": "bool",
          "name": "isActive",
          "type": "bool"
        },
        {
          "internalType": "address",
          "name": "musicMinter",
          "type": "address"
        },
        {
          "internalType": "uint256",
          "name": "currentTokensInLotto",
          "type": "uint256"
        },
        {
          "internalType": "uint256",
          "name": "tokenAmountTrigger",
          "type": "uint256"
        }
      ],
      "stateMutability": "view",
      "type": "function"
    },
    {
      "inputs": [
        {
          "internalType": "string",
          "name": "ipfsURL",
          "type": "string"
        },
        {
          "internalType": "uint256",
          "name": "tokenAmountTrigger",
          "type": "uint256"
        }
      ],
      "name": "mintMusic",
      "outputs": [
        {
          "internalType": "uint256",
          "name": "tokenId",
          "type": "uint256"
        }
      ],
      "stateMutability": "nonpayable",
      "type": "function"
    },
    {
      "inputs": [],
      "name": "name",
      "outputs": [
        {
          "internalType": "string",
          "name": "",
          "type": "string"
        }
      ],
      "stateMutability": "view",
      "type": "function"
    },
    {
      "inputs": [
        {
          "internalType": "address",
          "name": "operator",
          "type": "address"
        },
        {
          "internalType": "address",
          "name": "from",
          "type": "address"
        },
        {
          "internalType": "uint256",
          "name": "tokenId",
          "type": "uint256"
        },
        {
          "internalType": "bytes",
          "name": "data",
          "type": "bytes"
        }
      ],
      "name": "onERC721Received",
      "outputs": [
        {
          "internalType": "bytes4",
          "name": "",
          "type": "bytes4"
        }
      ],
      "stateMutability": "nonpayable",
      "type": "function"
    },
    {
      "inputs": [
        {
          "internalType": "uint256",
          "name": "tokenId",
          "type": "uint256"
        }
      ],
      "name": "ownerOf",
      "outputs": [
        {
          "internalType": "address",
          "name": "",
          "type": "address"
        }
      ],
      "stateMutability": "view",
      "type": "function"
    },
    {
      "inputs": [
        {
          "internalType": "uint256",
          "name": "requestId",
          "type": "uint256"
        },
        {
          "internalType": "uint256[]",
          "name": "randomWords",
          "type": "uint256[]"
        }
      ],
      "name": "rawFulfillRandomWords",
      "outputs": [],
      "stateMutability": "nonpayable",
      "type": "function"
    },
    {
      "inputs": [
        {
          "internalType": "uint256",
          "name": "",
          "type": "uint256"
        }
      ],
      "name": "requestID2TokenID",
      "outputs": [
        {
          "internalType": "uint256",
          "name": "",
          "type": "uint256"
        }
      ],
      "stateMutability": "view",
      "type": "function"
    },
    {
      "inputs": [
        {
          "internalType": "address",
          "name": "from",
          "type": "address"
        },
        {
          "internalType": "address",
          "name": "to",
          "type": "address"
        },
        {
          "internalType": "uint256",
          "name": "tokenId",
          "type": "uint256"
        }
      ],
      "name": "safeTransferFrom",
      "outputs": [],
      "stateMutability": "nonpayable",
      "type": "function"
    },
    {
      "inputs": [
        {
          "internalType": "address",
          "name": "from",
          "type": "address"
        },
        {
          "internalType": "address",
          "name": "to",
          "type": "address"
        },
        {
          "internalType": "uint256",
          "name": "tokenId",
          "type": "uint256"
        },
        {
          "internalType": "bytes",
          "name": "data",
          "type": "bytes"
        }
      ],
      "name": "safeTransferFrom",
      "outputs": [],
      "stateMutability": "nonpayable",
      "type": "function"
    },
    {
      "inputs": [
        {
          "internalType": "address",
          "name": "operator",
          "type": "address"
        },
        {
          "internalType": "bool",
          "name": "approved",
          "type": "bool"
        }
      ],
      "name": "setApprovalForAll",
      "outputs": [],
      "stateMutability": "nonpayable",
      "type": "function"
    },
    {
      "inputs": [
        {
          "internalType": "bytes4",
          "name": "interfaceId",
          "type": "bytes4"
        }
      ],
      "name": "supportsInterface",
      "outputs": [
        {
          "internalType": "bool",
          "name": "",
          "type": "bool"
        }
      ],
      "stateMutability": "view",
      "type": "function"
    },
    {
      "inputs": [],
      "name": "symbol",
      "outputs": [
        {
          "internalType": "string",
          "name": "",
          "type": "string"
        }
      ],
      "stateMutability": "view",
      "type": "function"
    },
    {
      "inputs": [
        {
          "internalType": "uint256",
          "name": "index",
          "type": "uint256"
        }
      ],
      "name": "tokenByIndex",
      "outputs": [
        {
          "internalType": "uint256",
          "name": "",
          "type": "uint256"
        }
      ],
      "stateMutability": "view",
      "type": "function"
    },
    {
      "inputs": [
        {
          "internalType": "address",
          "name": "owner",
          "type": "address"
        },
        {
          "internalType": "uint256",
          "name": "index",
          "type": "uint256"
        }
      ],
      "name": "tokenOfOwnerByIndex",
      "outputs": [
        {
          "internalType": "uint256",
          "name": "",
          "type": "uint256"
        }
      ],
      "stateMutability": "view",
      "type": "function"
    },
    {
      "inputs": [
        {
          "internalType": "uint256",
          "name": "tokenId",
          "type": "uint256"
        }
      ],
      "name": "tokenURI",
      "outputs": [
        {
          "internalType": "string",
          "name": "",
          "type": "string"
        }
      ],
      "stateMutability": "view",
      "type": "function"
    },
    {
      "inputs": [],
      "name": "totalSupply",
      "outputs": [
        {
          "internalType": "uint256",
          "name": "",
          "type": "uint256"
        }
      ],
      "stateMutability": "view",
      "type": "function"
    },
    {
      "inputs": [
        {
          "internalType": "address",
          "name": "from",
          "type": "address"
        },
        {
          "internalType": "address",
          "name": "to",
          "type": "address"
        },
        {
          "internalType": "uint256",
          "name": "tokenId",
          "type": "uint256"
        }
      ],
      "name": "transferFrom",
      "outputs": [],
      "stateMutability": "nonpayable",
      "type": "function"
    }
  ],
  "bytecode": "0x60a060405234801562000010575f80fd5b50732ca8e0c643bde4c2e08ab1fa0da3401adad7734d6040518060400160405280601481526020017f4d75736963616c204d6173746572706965636573000000000000000000000000815250604051806040016040528060058152602001644d554d415360d81b815250815f90816200008a919062000174565b50600162000099828262000174565b5050506001600160a01b0316608052600d80546001600160a01b031916732ca8e0c643bde4c2e08ab1fa0da3401adad7734d1790556200023c565b634e487b7160e01b5f52604160045260245ffd5b600181811c90821680620000fd57607f821691505b6020821081036200011c57634e487b7160e01b5f52602260045260245ffd5b50919050565b601f8211156200016f575f81815260208120601f850160051c810160208610156200014a5750805b601f850160051c820191505b818110156200016b5782815560010162000156565b5050505b505050565b81516001600160401b03811115620001905762000190620000d4565b620001a881620001a18454620000e8565b8462000122565b602080601f831160018114620001de575f8415620001c65750858301515b5f19600386901b1c1916600185901b1785556200016b565b5f85815260208120601f198616915b828110156200020e57888601518255948401946001909101908401620001ed565b50858210156200022c57878501515f19600388901b60f8161c191681555b5050505050600190811b01905550565b60805161272e6200025c5f395f818161087a01526108bc015261272e5ff3fe608060405234801561000f575f80fd5b506004361061016d575f3560e01c806342842e0e116100d957806395d89b4111610093578063b88d4fde1161006e578063b88d4fde146103ad578063bef60f30146103c0578063c87b56dd146103df578063e985e9c5146103f2575f80fd5b806395d89b411461036f5780639c661c5314610377578063a22cb4651461039a575f80fd5b806342842e0e146102fa5780634f6ccce71461030d5780636352211e1461032057806370a08231146103335780637817eaf6146103465780638eff10f714610359575f80fd5b80631398e0761161012a5780631398e07614610222578063150b7a021461028d57806318160ddd146102b95780631fe543e3146102c157806323b872dd146102d45780632f745c59146102e7575f80fd5b806301ffc9a71461017157806306fdde0314610199578063081812fc146101ae578063095ea7b3146101d95780630b00efac146101ee5780630c87d8e214610201575b5f80fd5b61018461017f366004611d7e565b61042d565b60405190151581526020015b60405180910390f35b6101a1610457565b6040516101909190611ddc565b6101c16101bc366004611dee565b6104e6565b6040516001600160a01b039091168152602001610190565b6101ec6101e7366004611e20565b61050b565b005b6101ec6101fc366004611e48565b610624565b61021461020f366004611e68565b61075d565b604051908152602001610190565b610263610230366004611dee565b600b6020525f908152604090208054600182015460029092015460ff8216926101009092046001600160a01b0316919084565b6040805194151585526001600160a01b039093166020850152918301526060820152608001610190565b6102a061029b366004611ed6565b610849565b6040516001600160e01b03199091168152602001610190565b600854610214565b6101ec6102cf366004611f83565b61086f565b6101ec6102e236600461202f565b6108f7565b6102146102f5366004611e20565b610928565b6101ec61030836600461202f565b6109bc565b61021461031b366004611dee565b6109d6565b6101c161032e366004611dee565b610a66565b610214610341366004612068565b610ac5565b610214610354366004612081565b610b49565b610361610bae565b604051610190929190612101565b6101a1610d50565b61038a610385366004612175565b610d5f565b60405161019094939291906121f1565b6101ec6103a8366004612283565b610fd9565b6101ec6103bb3660046122b8565b610fe4565b6102146103ce366004611dee565b600c6020525f908152604090205481565b6101a16103ed366004611dee565b61101c565b610184610400366004612370565b6001600160a01b039182165f90815260056020908152604080832093909416825291909152205460ff1690565b5f6001600160e01b0319821663780e9d6360e01b14806104515750610451826110bb565b92915050565b60605f805461046590612398565b80601f016020809104026020016040519081016040528092919081815260200182805461049190612398565b80156104dc5780601f106104b3576101008083540402835291602001916104dc565b820191905f5260205f20905b8154815290600101906020018083116104bf57829003601f168201915b5050505050905090565b5f6104f08261110a565b505f908152600460205260409020546001600160a01b031690565b5f61051582610a66565b9050806001600160a01b0316836001600160a01b0316036105875760405162461bcd60e51b815260206004820152602160248201527f4552433732313a20617070726f76616c20746f2063757272656e74206f776e656044820152603960f91b60648201526084015b60405180910390fd5b336001600160a01b03821614806105a357506105a38133610400565b6106155760405162461bcd60e51b815260206004820152603d60248201527f4552433732313a20617070726f76652063616c6c6572206973206e6f7420746f60448201527f6b656e206f776e6572206f7220617070726f76656420666f7220616c6c000000606482015260840161057e565b61061f838361116b565b505050565b5f828152600b60205260409020805460ff166106775760405162461bcd60e51b81526020600482015260126024820152714c6f7474657279206e6f742061637469766560701b604482015260640161057e565b6040516323b872dd60e01b81523360048201523060248201526044810183905273d481df2b6638f225ca90d26e08898430ab0d179c906323b872dd906064016020604051808303815f875af11580156106d2573d5f803e3d5ffd5b505050506040513d601f19601f820116820180604052508101906106f691906123d0565b5081816001015461070791906123ff565b600180830182815560038401805492830181555f908152602080822090930184905592835260048401909152604090912080546001600160a01b03191633179055600282015490541061061f5761061f836111d8565b5f828152600b60209081526040808320600301805482518185028101850190935280835284938301828280156107b057602002820191905f5260205f20905b81548152602001906001019080831161079c575b505050505090505f805b8251811015610840575f8382815181106107d6576107d6612412565b6020908102919091018101515f898152600b8352604080822083835260040190935291909120549091506001600160a01b03908116908716810361082b5761081e8483612426565b61082890876123ff565b95505b5091508061083881612439565b9150506107ba565b50505092915050565b5f6001600160a01b0385161561085d575f80fd5b50630a85bd0160e11b95945050505050565b336001600160a01b037f000000000000000000000000000000000000000000000000000000000000000016146108e95760405163073e64fd60e21b81523360048201526001600160a01b037f000000000000000000000000000000000000000000000000000000000000000016602482015260440161057e565b6108f3828261133a565b5050565b6109013382611415565b61091d5760405162461bcd60e51b815260040161057e90612451565b61061f838383611492565b5f61093283610ac5565b82106109945760405162461bcd60e51b815260206004820152602b60248201527f455243373231456e756d657261626c653a206f776e657220696e646578206f7560448201526a74206f6620626f756e647360a81b606482015260840161057e565b506001600160a01b03919091165f908152600660209081526040808320938352929052205490565b61061f83838360405180602001604052805f815250610fe4565b5f6109e060085490565b8210610a435760405162461bcd60e51b815260206004820152602c60248201527f455243373231456e756d657261626c653a20676c6f62616c20696e646578206f60448201526b7574206f6620626f756e647360a01b606482015260840161057e565b60088281548110610a5657610a56612412565b905f5260205f2001549050919050565b5f818152600260205260408120546001600160a01b0316806104515760405162461bcd60e51b8152602060048201526018602482015277115490cdcc8c4e881a5b9d985b1a59081d1bdad95b88125160421b604482015260640161057e565b5f6001600160a01b038216610b2e5760405162461bcd60e51b815260206004820152602960248201527f4552433732313a2061646472657373207a65726f206973206e6f7420612076616044820152683634b21037bbb732b960b91b606482015260840161057e565b506001600160a01b03165f9081526003602052604090205490565b5f610b5360085490565b5f818152600a60205260409020909150610b6e8486836124eb565b50610b793082611601565b5f818152600b6020526040902080546002820184905560016001600160a81b03199091166101003302171790555b9392505050565b6060805f610bbb30610ac5565b9050806001600160401b03811115610bd557610bd5611f3f565b604051908082528060200260200182016040528015610c0857816020015b6060815260200190600190039081610bf35790505b509250806001600160401b03811115610c2357610c23611f3f565b604051908082528060200260200182016040528015610c4c578160200160208202803683370190505b5091505f5b81811015610d4a575f610c643083610928565b5f818152600a60205260409020805491925090610c8090612398565b80601f0160208091040260200160405190810160405280929190818152602001828054610cac90612398565b8015610cf75780601f10610cce57610100808354040283529160200191610cf7565b820191905f5260205f20905b815481529060010190602001808311610cda57829003601f168201915b5050505050858381518110610d0e57610d0e612412565b602002602001018190525080848381518110610d2c57610d2c612412565b60209081029190910101525080610d4281612439565b915050610c51565b50509091565b60606001805461046590612398565b6060808080856001600160401b03811115610d7c57610d7c611f3f565b604051908082528060200260200182016040528015610da5578160200160208202803683370190505b509350856001600160401b03811115610dc057610dc0611f3f565b604051908082528060200260200182016040528015610de9578160200160208202803683370190505b509250856001600160401b03811115610e0457610e04611f3f565b604051908082528060200260200182016040528015610e2d578160200160208202803683370190505b509150856001600160401b03811115610e4857610e48611f3f565b604051908082528060200260200182016040528015610e71578160200160208202803683370190505b5090505f5b86811015610fcf57600b5f898984818110610e9357610e93612412565b9050602002013581526020019081526020015f2060010154858281518110610ebd57610ebd612412565b602002602001018181525050600b5f898984818110610ede57610ede612412565b9050602002013581526020019081526020015f2060020154848281518110610f0857610f08612412565b602002602001018181525050610f36888883818110610f2957610f29612412565b905060200201358761075d565b838281518110610f4857610f48612412565b602002602001018181525050600b5f898984818110610f6957610f69612412565b9050602002013581526020019081526020015f205f0160019054906101000a90046001600160a01b0316828281518110610fa557610fa5612412565b6001600160a01b039092166020928302919091019091015280610fc781612439565b915050610e76565b5093509350935093565b6108f333838361161a565b610fee3383611415565b61100a5760405162461bcd60e51b815260040161057e90612451565b611016848484846116e7565b50505050565b5f818152600a6020526040902080546060919061103890612398565b80601f016020809104026020016040519081016040528092919081815260200182805461106490612398565b80156110af5780601f10611086576101008083540402835291602001916110af565b820191905f5260205f20905b81548152906001019060200180831161109257829003601f168201915b50505050509050919050565b5f6001600160e01b031982166380ac58cd60e01b14806110eb57506001600160e01b03198216635b5e139f60e01b145b8061045157506301ffc9a760e01b6001600160e01b0319831614610451565b5f818152600260205260409020546001600160a01b03166111685760405162461bcd60e51b8152602060048201526018602482015277115490cdcc8c4e881a5b9d985b1a59081d1bdad95b88125160421b604482015260640161057e565b50565b5f81815260046020526040902080546001600160a01b0319166001600160a01b038416908117909155819061119f82610a66565b6001600160a01b03167f8c5be1e5ebec7d5bd14f71427d1e84f3dd0314c0f7b2291e5b200ac8c7c3b92560405160405180910390a45050565b600d546040516305d3b1d360e41b81527f79d3d8832d904592c0bf9818b621522c988bb8b0c05cdc3b15aea1b6e8db0c156004820152613117602482015260036044820152620249f06064820152600160848201525f916001600160a01b031690635d3b1d309060a4016020604051808303815f875af115801561125e573d5f803e3d5ffd5b505050506040513d601f19601f8201168201806040525081019061128291906125a5565b5f818152600c60209081526040808320869055858352600b90915290819020805460ff1916808255600190910154915163a9059cbb60e01b81526101009091046001600160a01b03166004820152602481019190915290915073d481df2b6638f225ca90d26e08898430ab0d179c9063a9059cbb906044016020604051808303815f875af1158015611316573d5f803e3d5ffd5b505050506040513d601f19601f8201168201806040525081019061061f91906123d0565b5f828152600c6020908152604080832054808452600b90925282206001015483519192918490839061136e5761136e612412565b602002602001015161138091906125d0565b61138b9060016123ff565b5f838152600b60205260408120919250906113a9906003018361171a565b5f848152600b6020526040812060030180549293509091839081106113d0576113d0612412565b5f918252602080832090910154868352600b825260408084208285526004019092529120549091506001600160a01b031661140c308287611492565b50505050505050565b5f8061142083610a66565b9050806001600160a01b0316846001600160a01b0316148061146657506001600160a01b038082165f9081526005602090815260408083209388168352929052205460ff165b8061148a5750836001600160a01b031661147f846104e6565b6001600160a01b0316145b949350505050565b826001600160a01b03166114a582610a66565b6001600160a01b0316146114cb5760405162461bcd60e51b815260040161057e906125e3565b6001600160a01b03821661152d5760405162461bcd60e51b8152602060048201526024808201527f4552433732313a207472616e7366657220746f20746865207a65726f206164646044820152637265737360e01b606482015260840161057e565b61153a83838360016117d6565b826001600160a01b031661154d82610a66565b6001600160a01b0316146115735760405162461bcd60e51b815260040161057e906125e3565b5f81815260046020908152604080832080546001600160a01b03199081169091556001600160a01b038781168086526003855283862080545f1901905590871680865283862080546001019055868652600290945282852080549092168417909155905184937fddf252ad1be2c89b69c2b068fc378daa952ba7f163c4a11628f55a4df523b3ef91a4505050565b6108f3828260405180602001604052805f815250611909565b816001600160a01b0316836001600160a01b03160361167b5760405162461bcd60e51b815260206004820152601960248201527f4552433732313a20617070726f766520746f2063616c6c657200000000000000604482015260640161057e565b6001600160a01b038381165f81815260056020908152604080832094871680845294825291829020805460ff191686151590811790915591519182527f17307eab39ab6107e8899845ad3d59bd9653f200f220920489ca2b5937696c31910160405180910390a3505050565b6116f2848484611492565b6116fe8484848461193b565b6110165760405162461bcd60e51b815260040161057e90612628565b81545f90810361172b57505f610451565b82545f905b80821015611783575f6117438383611a38565b90508486828154811061175857611758612412565b905f5260205f200154111561176f5780915061177d565b61177a8160016123ff565b92505b50611730565b5f821180156117b55750838561179a600185612426565b815481106117aa576117aa612412565b905f5260205f200154145b156117ce576117c5600183612426565b92505050610451565b509050610451565b60018111156118455760405162461bcd60e51b815260206004820152603560248201527f455243373231456e756d657261626c653a20636f6e7365637574697665207472604482015274185b9cd9995c9cc81b9bdd081cdd5c1c1bdc9d1959605a1b606482015260840161057e565b816001600160a01b0385166118a05761189b81600880545f838152600960205260408120829055600182018355919091527ff3f7a9fe364faab93b216da50a3214154f22a0a2b415b23a84c8169e8b636ee30155565b6118c3565b836001600160a01b0316856001600160a01b0316146118c3576118c38582611a52565b6001600160a01b0384166118df576118da81611aeb565b611902565b846001600160a01b0316846001600160a01b031614611902576119028482611b92565b5050505050565b6119138383611bd4565b61191f5f84848461193b565b61061f5760405162461bcd60e51b815260040161057e90612628565b5f6001600160a01b0384163b15611a2d57604051630a85bd0160e11b81526001600160a01b0385169063150b7a029061197e90339089908890889060040161267a565b6020604051808303815f875af19250505080156119b8575060408051601f3d908101601f191682019092526119b5918101906126b6565b60015b611a13573d8080156119e5576040519150601f19603f3d011682016040523d82523d5f602084013e6119ea565b606091505b5080515f03611a0b5760405162461bcd60e51b815260040161057e90612628565b805181602001fd5b6001600160e01b031916630a85bd0160e11b14905061148a565b506001949350505050565b5f611a4660028484186126d1565b610ba7908484166123ff565b5f6001611a5e84610ac5565b611a689190612426565b5f83815260076020526040902054909150808214611ab9576001600160a01b0384165f9081526006602090815260408083208584528252808320548484528184208190558352600790915290208190555b505f9182526007602090815260408084208490556001600160a01b039094168352600681528383209183525290812055565b6008545f90611afc90600190612426565b5f8381526009602052604081205460088054939450909284908110611b2357611b23612412565b905f5260205f20015490508060088381548110611b4257611b42612412565b5f918252602080832090910192909255828152600990915260408082208490558582528120556008805480611b7957611b796126e4565b600190038181905f5260205f20015f9055905550505050565b5f611b9c83610ac5565b6001600160a01b039093165f908152600660209081526040808320868452825280832085905593825260079052919091209190915550565b6001600160a01b038216611c2a5760405162461bcd60e51b815260206004820181905260248201527f4552433732313a206d696e7420746f20746865207a65726f2061646472657373604482015260640161057e565b5f818152600260205260409020546001600160a01b031615611c8e5760405162461bcd60e51b815260206004820152601c60248201527f4552433732313a20746f6b656e20616c7265616479206d696e74656400000000604482015260640161057e565b611c9b5f838360016117d6565b5f818152600260205260409020546001600160a01b031615611cff5760405162461bcd60e51b815260206004820152601c60248201527f4552433732313a20746f6b656e20616c7265616479206d696e74656400000000604482015260640161057e565b6001600160a01b0382165f81815260036020908152604080832080546001019055848352600290915280822080546001600160a01b0319168417905551839291907fddf252ad1be2c89b69c2b068fc378daa952ba7f163c4a11628f55a4df523b3ef908290a45050565b6001600160e01b031981168114611168575f80fd5b5f60208284031215611d8e575f80fd5b8135610ba781611d69565b5f81518084525f5b81811015611dbd57602081850181015186830182015201611da1565b505f602082860101526020601f19601f83011685010191505092915050565b602081525f610ba76020830184611d99565b5f60208284031215611dfe575f80fd5b5035919050565b80356001600160a01b0381168114611e1b575f80fd5b919050565b5f8060408385031215611e31575f80fd5b611e3a83611e05565b946020939093013593505050565b5f8060408385031215611e59575f80fd5b50508035926020909101359150565b5f8060408385031215611e79575f80fd5b82359150611e8960208401611e05565b90509250929050565b5f8083601f840112611ea2575f80fd5b5081356001600160401b03811115611eb8575f80fd5b602083019150836020828501011115611ecf575f80fd5b9250929050565b5f805f805f60808688031215611eea575f80fd5b611ef386611e05565b9450611f0160208701611e05565b93506040860135925060608601356001600160401b03811115611f22575f80fd5b611f2e88828901611e92565b969995985093965092949392505050565b634e487b7160e01b5f52604160045260245ffd5b604051601f8201601f191681016001600160401b0381118282101715611f7b57611f7b611f3f565b604052919050565b5f8060408385031215611f94575f80fd5b823591506020808401356001600160401b0380821115611fb2575f80fd5b818601915086601f830112611fc5575f80fd5b813581811115611fd757611fd7611f3f565b8060051b9150611fe8848301611f53565b8181529183018401918481019089841115612001575f80fd5b938501935b8385101561201f57843582529385019390850190612006565b8096505050505050509250929050565b5f805f60608486031215612041575f80fd5b61204a84611e05565b925061205860208501611e05565b9150604084013590509250925092565b5f60208284031215612078575f80fd5b610ba782611e05565b5f805f60408486031215612093575f80fd5b83356001600160401b038111156120a8575f80fd5b6120b486828701611e92565b909790965060209590950135949350505050565b5f8151808452602080850194508084015f5b838110156120f6578151875295820195908201906001016120da565b509495945050505050565b5f604082016040835280855180835260608501915060608160051b860101925060208088015f5b8381101561215657605f19888703018552612144868351611d99565b95509382019390820190600101612128565b50508584038187015250505061216c81856120c8565b95945050505050565b5f805f60408486031215612187575f80fd5b83356001600160401b038082111561219d575f80fd5b818601915086601f8301126121b0575f80fd5b8135818111156121be575f80fd5b8760208260051b85010111156121d2575f80fd5b6020928301955093506121e89186019050611e05565b90509250925092565b608081525f61220360808301876120c8565b60208382038185015261221682886120c8565b9150838203604085015261222a82876120c8565b848103606086015285518082528287019350908201905f5b818110156122675784516001600160a01b031683529383019391830191600101612242565b50909998505050505050505050565b8015158114611168575f80fd5b5f8060408385031215612294575f80fd5b61229d83611e05565b915060208301356122ad81612276565b809150509250929050565b5f805f80608085870312156122cb575f80fd5b6122d485611e05565b935060206122e3818701611e05565b93506040860135925060608601356001600160401b0380821115612305575f80fd5b818801915088601f830112612318575f80fd5b81358181111561232a5761232a611f3f565b61233c601f8201601f19168501611f53565b91508082528984828501011115612351575f80fd5b80848401858401375f8482840101525080935050505092959194509250565b5f8060408385031215612381575f80fd5b61238a83611e05565b9150611e8960208401611e05565b600181811c908216806123ac57607f821691505b6020821081036123ca57634e487b7160e01b5f52602260045260245ffd5b50919050565b5f602082840312156123e0575f80fd5b8151610ba781612276565b634e487b7160e01b5f52601160045260245ffd5b80820180821115610451576104516123eb565b634e487b7160e01b5f52603260045260245ffd5b81810381811115610451576104516123eb565b5f6001820161244a5761244a6123eb565b5060010190565b6020808252602d908201527f4552433732313a2063616c6c6572206973206e6f7420746f6b656e206f776e6560408201526c1c881bdc88185c1c1c9bdd9959609a1b606082015260800190565b601f82111561061f575f81815260208120601f850160051c810160208610156124c45750805b601f850160051c820191505b818110156124e3578281556001016124d0565b505050505050565b6001600160401b0383111561250257612502611f3f565b612516836125108354612398565b8361249e565b5f601f841160018114612547575f85156125305750838201355b5f19600387901b1c1916600186901b178355611902565b5f83815260209020601f19861690835b828110156125775786850135825560209485019460019092019101612557565b5086821015612593575f1960f88860031b161c19848701351681555b505060018560011b0183555050505050565b5f602082840312156125b5575f80fd5b5051919050565b634e487b7160e01b5f52601260045260245ffd5b5f826125de576125de6125bc565b500690565b60208082526025908201527f4552433732313a207472616e736665722066726f6d20696e636f72726563742060408201526437bbb732b960d91b606082015260800190565b60208082526032908201527f4552433732313a207472616e7366657220746f206e6f6e20455243373231526560408201527131b2b4bb32b91034b6b83632b6b2b73a32b960711b606082015260800190565b6001600160a01b03858116825284166020820152604081018390526080606082018190525f906126ac90830184611d99565b9695505050505050565b5f602082840312156126c6575f80fd5b8151610ba781611d69565b5f826126df576126df6125bc565b500490565b634e487b7160e01b5f52603160045260245ffdfea2646970667358221220c89cf82f3fc10fdbff0c381365be3b5f99fb0710c3de167949a2c53ddc9bb9af64736f6c63430008140033",
  "linkReferences": {},
  "deployedLinkReferences": {}
}